:060000000A128A11122809
:10000800FF00030883120313A2000408A3000A08D0
:10001800A4007E08A5000A128A11DF290A128A1193
:10002800392A7208803AF00080307002031D1E28B9
:10003800B4307102031C212822284F280C30831267
:10004800031397000814FF3086001608C83A031DEA
:100058002E282F283228C83095007A299730160282
:10006800031C372838284328C830160203183D28AF
:100078003E2843280230F000700895077A29973007
:1000880016020318482849284E280A30F00070083C
:1000980095077A297A297208803AF0008030700230
:1000A800031D5828B430710203185B285C289B286C
:1000B8007208803AF00080307002031D6528823093
:1000C8007102031C682869289B280C3083120313CB
:1000D80097000814083086001608AF3A031D7528E3
:1000E80076287928AF3095007A29BF301602031C8C
:1000F8007E287F2883281608033095027A298330C2
:100108001602031C882889289428BF301602031871
:100118008E288F2894280530F000700895077A29D2
:1001280065301602031899289A284E28492872081B
:10013800803AF00080307002031DA42882307102DA
:100148000318A728A828E0287208803AF000803011
:100158007002031DB1285A307102031CB428B52857
:10016800E0280C308312031397000814043086002B
:1001780016087D3A031DC128C228C5287D30950080
:100188007A2997301602031CCA28CB28CC287F2846
:100198005B301602031CD128D228D92897301602C2
:1001A8000318D728D828D9288F285B3016020318B7
:1001B800DE28DF284E2849287208803AF00080306F
:1001C8007002031DE9285A3071020318EC28ED2843
:1001D8002E297208803AF00080307002031DF6283C
:1001E8000B307102031CF928FA282E290C308312CF
:1001F800031397000814023086001608463A031DB8
:10020800062907290A29463095007A2997301602C7
:10021800031C0F291029142916080A3095027A2977
:1002280065301602031C19291A292329973016024A
:1002380003181F2920292329053095027A296530BA
:1002480016020318282929294E280330F0007008BF
:1002580095077A297208803AF00080307002031DF1
:1002680037290B30710203183A293B297A290130C2
:100278008312031386000630160203184429452901
:100288005129031000300318013097000310003083
:1002980003180130950008107A2997301602031CBC
:1002A800562957295E2916080C3097000130950207
:1002B80008147A2965301602031C632964296F29FA
:1002C80097301602031869296A296F290C3097009C
:1002D800023095025C2965301602031874297529C5
:1002E8004E280C309700043095025C2908000A1249
:1002F8008A11B5210A128A110A128A1123220A12B6
:100308008A11F93083160313920005308312031300
:1003180092000C3097000310003003180130880059
:100328004D30831203139F00761C9B299C29942926
:100338007808F201F2077708F101F1070A128A1129
:1003480015200A128A110F30F4000030F5000A1245
:100358008A1102220A128A11761094290A128A1125
:100368001228831203138B160B118B170430831674
:100378000313810010308700DF3085007F3088004C
:1003880032308312031394008030831603139400D1
:1003980083120313851685120310003003180130E9
:1003A80083160313860003100030031801308312EC
:1003B8000313880008000C1FE229E329F7290C130E
:1003C80076141E08A000A1012008F7002108F800F3
:1003D8001E08930083160313141CF329F429EE292D
:1003E8008312031313082508FE0024088A00230833
:1003F800840022088300FF0E7F0E09007508F301B0
:10040800F3077408F201F207F31F0B2A0C2A0D2ACE
:10041800222AE830F0000330F100FF30F00703181B
:10042800F10AFF30F107F11F1A2A1B2A112AFF309F
:10043800F2070318F30AFF30F307082A08004930C7
:10044800831203139F000D30831603139F00C030DF
:10045800831203138B0003100030031801308C0043
:100468004030831603138C000800F601F701F801E9
:0804780083010A128A117B299D
:02400E00F93F78
:00000001FF
