:020000000F28C7
:10000800CF00030883129200040893000A089400A2
:100018004E089500102871288B1C13281428452891
:100028008B101B0890001A088F00013091000310F4
:100038008F0D900D910B1B280F089A0010089B003C
:100048000310051803140030031801301A079A002A
:100058001B0803181B0A9B00013096070318970A10
:1000680000309707083016061704031D3C283D2862
:100078004528003096000030970000309A00003084
:100088009B001508CE0014088A0013088400120883
:100098008300CF0E4F0E0900652083121A088C00CA
:1000A8000C0786001B088D001A088C0007308E008C
:1000B8000D0D8D0C8C0C8E0B5C280C0885005128BE
:1000C8000F2804308316810083128B170B1601301A
:1000D800831685000130860008009C01960197016F
:0C00E800980199019A019B0183015028A6
:02400E00F93F78
:00000001FF
